:100000000C942A000C9447000C9447000C94470071
:100010000C9447000C9447000C9447000C94470044
:100020000C9447000C9447000C9447000C94470034
:100030000C9447000C9447000C9447000C94470024
:100040000C9402010C9447000C9447000C94470058
:100050000C94470011241FBECFE5D8E0DEBFCDBF12
:1000600010E0A0E6B0E0EAECF6E002C005900D92E8
:10007000AC37B107D9F720E0ACE7B0E001C01D9282
:10008000A638B207E1F70E9417030C9463030C949F
:1000900000003E9A3F983D9886B1887F86B986B128
:1000A000876086B9379A339A0895379A08953798B2
:1000B0000895339A089533980895883030F496B1AE
:1000C000987F96B996B1982B96B980E00895FB0178
:1000D00094E0309761F190917C0091112AC021E069
:1000E00020937C0027B1207E27B927B1282B27B980
:1000F000369A60E070E0AB0134990DC0403583EC76
:1001000058076105710511F493E00FC04F5F5F4F11
:100110006F4F7F4FF1CF4035534C61057105A1F30F
:10012000349A24B185B12083818310927C00892F79
:10013000089592E0FCCF61157105F1F0411551056C
:10014000D9F090917C00911119C021E020937C009E
:100150001092810060938400709385004093820028
:100160005093830027B1207E27B927B1282B27B9C8
:10017000369A339A892F089594E0FCCF92E0FACF13
:10018000FC01892BD9F14081518141155105B1F113
:10019000258136812115310589F1628173816115CF
:1001A000710561F180917C0081112AC091E09093EA
:1001B0007C0090938100609384007093850040934D
:1001C0007F0050938000948190937E002093820062
:1001D0003093830010927D0097B1907E97B997B1CC
:1001E00020917D00E0917F00F0918000E20FF11DF1
:1001F0002081922B97B9369A339A089584E0089516
:1002000082E008951F920F920FB60F9211242F9340
:100210003F934F935F936F937F938F939F93AF938E
:10022000BF93EF93FF93E0918400F091850080915C
:10023000810081111DC084B125B18083218310927A
:100240007C00E0918200F091830009953398FF9142
:10025000EF91BF91AF919F918F917F916F915F913E
:100260004F913F912F910F900FBE0F901F901895B7
:1002700024B145B180917D00E80FF11DE80FF11D1B
:10028000208341838F5F80937D0090917E0089174A
:10029000B1F287B1807E87B987B190917D00E091FE
:1002A0007F00F0918000E90FF11D9081892B87B9C3
:1002B000369ACDCF843058F5683048F54130A1F4F6
:1002C000E82FF0E0EE0FFF1FE559FF4F0190F0819E
:1002D000E02D808121E001C0220F6A95EAF7822B90
:1002E000808380E090E0089590F4E82FF0E0EE0F36
:1002F000FF1FE559FF4F0190F081E02D208181E043
:1003000001C0880F6A95EAF780958223E9CF81E0E2
:1003100090E00895843058F5683048F54130A1F4F4
:10032000E82FF0E0EE0FFF1FED58FF4F0190F08136
:10033000E02D808121E001C0220F6A95EAF7822B2F
:10034000808380E090E0089590F4E82FF0E0EE0FD5
:10035000FF1FED58FF4F0190F081E02D208181E0DB
:1003600001C0880F6A95EAF780958223E9CF81E082
:1003700090E008958430D8F46830C8F441155105F0
:10038000B1F0E82FF0E0EE0FFF1FED59FF4F0190A5
:10039000F081E02D808190E002C0959587956A9567
:1003A000E2F78170FA01808380E090E0089581E0B7
:1003B00090E008958430B0F46830A0F4E82FF0E0C5
:1003C000EE0FFF1FED58FF4F0190F081E02D80816F
:1003D00021E001C0220F6A95EAF78227808380E03E
:1003E00090E0089581E090E00895843068F4E82F6B
:1003F000F0E0EE0FFF1FE559FF4F0190F081E02D77
:10040000608380E090E0089581E090E0089584307A
:1004100068F4E82FF0E0EE0FFF1FED58FF4F01905A
:10042000F081E02D608380E090E0089581E090E02D
:100430000895843090F46115710579F0E82FF0E0AB
:10044000EE0FFF1FED59FF4F0190F081E02D8081ED
:10045000FB01808380E090E0089581E090E00895C2
:10046000843078F4E82FF0E0EE0FFF1FED58FF4FD7
:100470000190F081E02D80818095808380E090E084
:10048000089581E090E008958430C8F490E0880FEA
:10049000991FFC01E559FF4F0190F081E02D20816B
:1004A0002F6020838D589F4FDC01ED91FD9180815D
:1004B0006F70807F682B608380E090E0089581E01A
:1004C00090E008958430D0F490E0880F991FFC01EB
:1004D000E559FF4F0190F081E02D2081206F2083AE
:1004E0008D589F4FDC01ED91FD9180818F70629559
:1004F000607F682B608380E090E0089581E090E069
:100500000895CF93DF9300D000D0CDB7DEB78983B5
:100510006A838430B8F46830A8F440E00E945A013D
:100520008B839C8341E06A8189810E948A012B81AF
:100530003C81822B932B0F900F900F900F90DF91A7
:10054000CF91089581E090E0F6CF862F672F41E0AC
:100550000C945A01962F672F41E0813011F020F45E
:1005600040E0892F0C948A010895962F672F41E06F
:10057000813010F021F440E0892F0C948A01089515
:10058000862F672F0C94DA01AF92BF92DF92EF9221
:10059000FF920F931F93CF93DF9300D0CDB7DEB7B9
:1005A0007C018B0119821A820097E9F1672BD9F13E
:1005B000FC01D180BE016F5F7F4F80810E94670088
:1005C000A82EB12C81111FC029813A8188EE93E0B9
:1005D000D89ED001D99EB00D11240E944003DC01A9
:1005E000F701228121111CC0872F9A2FAB2FA695CE
:1005F00097958795A695979587956AE070E00E94F4
:100600004F03F8016083C5010F900F90DF91CF91E8
:100610001F910F91FF90EF90DF90BF90AF900895E2
:10062000872F9A2FEACF84E0A82EB12CECCF00D0F0
:1006300000D0CDB7DEB70E944900C0906000D090D6
:100640006100E0906200B6018E2D0E94A5021C821E
:10065000198285E08A831B82BE016C5F7F4FCE01C9
:1006600001960E94C4028C818F3128F0B6018E2D34
:100670000E94AA02F1CFB6018E2D0E94B502ECCFE6
:10068000A29FB001B39FC001A39F700D811D1124D3
:10069000911DB29F700D811D1124911D0895AA1BFB
:1006A000BB1B51E107C0AA1FBB1FA617B70710F05D
:1006B000A61BB70B881F991F5A95A9F7809590958F
:0A06C000BC01CD010895F894FFCFAE
:1006CA0001000139003600330030003A00370034A7
:0C06DA000031003B003800350032000009
:00000001FF
